[
  {
    "rawTx": "01000000000101fba1b9ea3572f1de7f63c189c36b64efdc239e8a5dfd500a98aeedb8f0d63ca401000000171600141e93aee23f2124952b8d2f3ebd4315cf819c83abffffffff0180f0fa020000000017a9140ef57d5efdba032566454c3c01635f9f583980a2870247304402204da52ce34b8f0d62e7a18766fc4e47d58346e57d5afa32b686265718f46c630102201bf3ccf02aaa2e95997a8e8191087a8032748ab0bcd3043a3def592d6bf2013b0121023797ce0ac88058176f1802b3f6a3eef0fa489fe49323990726d43bf666c365b900000000",
    "decodedTx": {
      "txid": "19320594287dbc1be37d1fa405946c36d6e692e531c11cdcc2d2cd11c43d5b1e",
      "hash": "3b12c9d77ed2d57ed6ecfc2151da1ad5ccc5f2505b3e52d7024820ddb5eb842b",
      "version": 1,
      "size": 215,
      "vsize": 134,
      "weight": 533,
      "locktime": 0,
      "vin": [
        {
          "txid": "a43cd6f0b8edae980a50fd5d8a9e23dcef646bc389c1637fdef17235eab9a1fb",
          "vout": 1,
          "scriptSig": {
            "asm": "00141e93aee23f2124952b8d2f3ebd4315cf819c83ab",
            "hex": "1600141e93aee23f2124952b8d2f3ebd4315cf819c83ab"
          },
          "txinwitness": [
            "304402204da52ce34b8f0d62e7a18766fc4e47d58346e57d5afa32b686265718f46c630102201bf3ccf02aaa2e95997a8e8191087a8032748ab0bcd3043a3def592d6bf2013b01",
            "023797ce0ac88058176f1802b3f6a3eef0fa489fe49323990726d43bf666c365b9"
          ],
          "sequence": 4294967295
        }
      ],
      "vout": [
        {
          "value": 0.5,
          "n": 0,
          "scriptPubKey": {
            "asm": "OP_HASH160 0ef57d5efdba032566454c3c01635f9f583980a2 OP_EQUAL",
            "hex": "a9140ef57d5efdba032566454c3c01635f9f583980a287",
            "reqSigs": 1,
            "type": "scripthash",
            "addresses": [
              "2MtcKXtsMU92GjmWTAJGHsWyD8SRr6YC4gf"
            ]
          }
        }
      ]
    }
  },
  {
    "rawTx": "010000000e2354cdea2023cdc9228d7c585263f3700f3abb9fd870312b4641e25dd232317c01000000fd270100000000004d1f01645321025a2f522aea776fab5241ad72f7f05918e8606676461cb6ce38265a52d4ca9ed62102afc230c2d355b1a577682b07bc2646041b5d0177af0f98395a46018da699b6da21032822626c45fc1c4e3a3def5b4983636d6291a7a6677f66874c337e78bc3b7784210357a2621df0252caa3c4ccb383d6b309c93adbc6708bccfe751bb0cfeb12d34282103fb8e1d5d0392d35ca8c3656acb6193dbf392b3e89b9b7b86693f5c80f7ce858155ae670350cd00b27552210216c23b2ea8e4f11c3f9e22711addb1d16a93964796913830856b568cc3ea21d3210275562901dd8faae20de0a4166362a4f82188db77dbed4ca887422ea1ec185f1421034db69f2112f4fb1bb6141bf6e2bd6631f0484d0bd95b16767902c9fe219d4a6f53ae68ffffffffef3145f8add993ab835e6e158f4424eff9e9c8e4f2551624a96a9773ab07459f01000000fd270100000000004d1f01645321025a2f522aea776fab5241ad72f7f05918e8606676461cb6ce38265a52d4ca9ed62102afc230c2d355b1a577682b07bc2646041b5d0177af0f98395a46018da699b6da21032822626c45fc1c4e3a3def5b4983636d6291a7a6677f66874c337e78bc3b7784210357a2621df0252caa3c4ccb383d6b309c93adbc6708bccfe751bb0cfeb12d34282103fb8e1d5d0392d35ca8c3656acb6193dbf392b3e89b9b7b86693f5c80f7ce858155ae670350cd00b27552210216c23b2ea8e4f11c3f9e22711addb1d16a93964796913830856b568cc3ea21d3210275562901dd8faae20de0a4166362a4f82188db77dbed4ca887422ea1ec185f1421034db69f2112f4fb1bb6141bf6e2bd6631f0484d0bd95b16767902c9fe219d4a6f53ae68ffffffffdd8373a2030f021c72b67b49a3f29fc9199ded57a35d95324d1019514d55c99f01000000fd270100000000004d1f01645321025a2f522aea776fab5241ad72f7f05918e8606676461cb6ce38265a52d4ca9ed62102afc230c2d355b1a577682b07bc2646041b5d0177af0f98395a46018da699b6da21032822626c45fc1c4e3a3def5b4983636d6291a7a6677f66874c337e78bc3b7784210357a2621df0252caa3c4ccb383d6b309c93adbc6708bccfe751bb0cfeb12d34282103fb8e1d5d0392d35ca8c3656acb6193dbf392b3e89b9b7b86693f5c80f7ce858155ae670350cd00b27552210216c23b2ea8e4f11c3f9e22711addb1d16a93964796913830856b568cc3ea21d3210275562901dd8faae20de0a4166362a4f82188db77dbed4ca887422ea1ec185f1421034db69f2112f4fb1bb6141bf6e2bd6631f0484d0bd95b16767902c9fe219d4a6f53ae68ffffffffdae608e8237567de2232daf6aa46533bffec6aa27fc342fdd7e55066cd57c8a201000000fd270100000000004d1f01645321025a2f522aea776fab5241ad72f7f05918e8606676461cb6ce38265a52d4ca9ed62102afc230c2d355b1a577682b07bc2646041b5d0177af0f98395a46018da699b6da21032822626c45fc1c4e3a3def5b4983636d6291a7a6677f66874c337e78bc3b7784210357a2621df0252caa3c4ccb383d6b309c93adbc6708bccfe751bb0cfeb12d34282103fb8e1d5d0392d35ca8c3656acb6193dbf392b3e89b9b7b86693f5c80f7ce858155ae670350cd00b27552210216c23b2ea8e4f11c3f9e22711addb1d16a93964796913830856b568cc3ea21d3210275562901dd8faae20de0a4166362a4f82188db77dbed4ca887422ea1ec185f1421034db69f2112f4fb1bb6141bf6e2bd6631f0484d0bd95b16767902c9fe219d4a6f53ae68ffffffffda857d563c8345d6b36fe732f0d2ff0cac5dbb0a3336c5b996ccba13b98100ad01000000fd270100000000004d1f01645321025a2f522aea776fab5241ad72f7f05918e8606676461cb6ce38265a52d4ca9ed62102afc230c2d355b1a577682b07bc2646041b5d0177af0f98395a46018da699b6da21032822626c45fc1c4e3a3def5b4983636d6291a7a6677f66874c337e78bc3b7784210357a2621df0252caa3c4ccb383d6b309c93adbc6708bccfe751bb0cfeb12d34282103fb8e1d5d0392d35ca8c3656acb6193dbf392b3e89b9b7b86693f5c80f7ce858155ae670350cd00b27552210216c23b2ea8e4f11c3f9e22711addb1d16a93964796913830856b568cc3ea21d3210275562901dd8faae20de0a4166362a4f82188db77dbed4ca887422ea1ec185f1421034db69f2112f4fb1bb6141bf6e2bd6631f0484d0bd95b16767902c9fe219d4a6f53ae68ffffffff99e7cb78113534071441c917bd6571ce3b4b2584705e99afc70927359dc821f401000000fd270100000000004d1f01645321025a2f522aea776fab5241ad72f7f05918e8606676461cb6ce38265a52d4ca9ed62102afc230c2d355b1a577682b07bc2646041b5d0177af0f98395a46018da699b6da21032822626c45fc1c4e3a3def5b4983636d6291a7a6677f66874c337e78bc3b7784210357a2621df0252caa3c4ccb383d6b309c93adbc6708bccfe751bb0cfeb12d34282103fb8e1d5d0392d35ca8c3656acb6193dbf392b3e89b9b7b86693f5c80f7ce858155ae670350cd00b27552210216c23b2ea8e4f11c3f9e22711addb1d16a93964796913830856b568cc3ea21d3210275562901dd8faae20de0a4166362a4f82188db77dbed4ca887422ea1ec185f1421034db69f2112f4fb1bb6141bf6e2bd6631f0484d0bd95b16767902c9fe219d4a6f53ae68ffffffff71af1aed7fe72c1864618aafd41824dbea4e9418f45374f17cecbbf76b1ed5f401000000fd270100000000004d1f01645321025a2f522aea776fab5241ad72f7f05918e8606676461cb6ce38265a52d4ca9ed62102afc230c2d355b1a577682b07bc2646041b5d0177af0f98395a46018da699b6da21032822626c45fc1c4e3a3def5b4983636d6291a7a6677f66874c337e78bc3b7784210357a2621df0252caa3c4ccb383d6b309c93adbc6708bccfe751bb0cfeb12d34282103fb8e1d5d0392d35ca8c3656acb6193dbf392b3e89b9b7b86693f5c80f7ce858155ae670350cd00b27552210216c23b2ea8e4f11c3f9e22711addb1d16a93964796913830856b568cc3ea21d3210275562901dd8faae20de0a4166362a4f82188db77dbed4ca887422ea1ec185f1421034db69f2112f4fb1bb6141bf6e2bd6631f0484d0bd95b16767902c9fe219d4a6f53ae68ffffffff63048895f399496def5574396649c4852927fc35aca540068f17deef780f58f601000000fd270100000000004d1f01645321025a2f522aea776fab5241ad72f7f05918e8606676461cb6ce38265a52d4ca9ed62102afc230c2d355b1a577682b07bc2646041b5d0177af0f98395a46018da699b6da21032822626c45fc1c4e3a3def5b4983636d6291a7a6677f66874c337e78bc3b7784210357a2621df0252caa3c4ccb383d6b309c93adbc6708bccfe751bb0cfeb12d34282103fb8e1d5d0392d35ca8c3656acb6193dbf392b3e89b9b7b86693f5c80f7ce858155ae670350cd00b27552210216c23b2ea8e4f11c3f9e22711addb1d16a93964796913830856b568cc3ea21d3210275562901dd8faae20de0a4166362a4f82188db77dbed4ca887422ea1ec185f1421034db69f2112f4fb1bb6141bf6e2bd6631f0484d0bd95b16767902c9fe219d4a6f53ae68ffffffff1c6a2cd0c18082423d804f02ebe3f182746950f0ef9b03f6c355f324b6d83ff801000000fd270100000000004d1f01645321025a2f522aea776fab5241ad72f7f05918e8606676461cb6ce38265a52d4ca9ed62102afc230c2d355b1a577682b07bc2646041b5d0177af0f98395a46018da699b6da21032822626c45fc1c4e3a3def5b4983636d6291a7a6677f66874c337e78bc3b7784210357a2621df0252caa3c4ccb383d6b309c93adbc6708bccfe751bb0cfeb12d34282103fb8e1d5d0392d35ca8c3656acb6193dbf392b3e89b9b7b86693f5c80f7ce858155ae670350cd00b27552210216c23b2ea8e4f11c3f9e22711addb1d16a93964796913830856b568cc3ea21d3210275562901dd8faae20de0a4166362a4f82188db77dbed4ca887422ea1ec185f1421034db69f2112f4fb1bb6141bf6e2bd6631f0484d0bd95b16767902c9fe219d4a6f53ae68ffffffffc6525d4e03354e11716606a47b90de14300852d0f7e46a4c7889b56578dcd2f902000000fd270100000000004d1f01645321025a2f522aea776fab5241ad72f7f05918e8606676461cb6ce38265a52d4ca9ed62102afc230c2d355b1a577682b07bc2646041b5d0177af0f98395a46018da699b6da21032822626c45fc1c4e3a3def5b4983636d6291a7a6677f66874c337e78bc3b7784210357a2621df0252caa3c4ccb383d6b309c93adbc6708bccfe751bb0cfeb12d34282103fb8e1d5d0392d35ca8c3656acb6193dbf392b3e89b9b7b86693f5c80f7ce858155ae670350cd00b27552210216c23b2ea8e4f11c3f9e22711addb1d16a93964796913830856b568cc3ea21d3210275562901dd8faae20de0a4166362a4f82188db77dbed4ca887422ea1ec185f1421034db69f2112f4fb1bb6141bf6e2bd6631f0484d0bd95b16767902c9fe219d4a6f53ae68ffffffff821ebc15e80e8b4e0b145bb79135493de46c1a6694e61c5aa242d8617677bcfc01000000fd270100000000004d1f01645321025a2f522aea776fab5241ad72f7f05918e8606676461cb6ce38265a52d4ca9ed62102afc230c2d355b1a577682b07bc2646041b5d0177af0f98395a46018da699b6da21032822626c45fc1c4e3a3def5b4983636d6291a7a6677f66874c337e78bc3b7784210357a2621df0252caa3c4ccb383d6b309c93adbc6708bccfe751bb0cfeb12d34282103fb8e1d5d0392d35ca8c3656acb6193dbf392b3e89b9b7b86693f5c80f7ce858155ae670350cd00b27552210216c23b2ea8e4f11c3f9e22711addb1d16a93964796913830856b568cc3ea21d3210275562901dd8faae20de0a4166362a4f82188db77dbed4ca887422ea1ec185f1421034db69f2112f4fb1bb6141bf6e2bd6631f0484d0bd95b16767902c9fe219d4a6f53ae68ffffffff557e147553c28980148d38939a066aaddcfa26d413f52f61355d3b5e861346fd01000000fd270100000000004d1f01645321025a2f522aea776fab5241ad72f7f05918e8606676461cb6ce38265a52d4ca9ed62102afc230c2d355b1a577682b07bc2646041b5d0177af0f98395a46018da699b6da21032822626c45fc1c4e3a3def5b4983636d6291a7a6677f66874c337e78bc3b7784210357a2621df0252caa3c4ccb383d6b309c93adbc6708bccfe751bb0cfeb12d34282103fb8e1d5d0392d35ca8c3656acb6193dbf392b3e89b9b7b86693f5c80f7ce858155ae670350cd00b27552210216c23b2ea8e4f11c3f9e22711addb1d16a93964796913830856b568cc3ea21d3210275562901dd8faae20de0a4166362a4f82188db77dbed4ca887422ea1ec185f1421034db69f2112f4fb1bb6141bf6e2bd6631f0484d0bd95b16767902c9fe219d4a6f53ae68ffffffff6d2647521f26cad0da98bd9f1a18dff54892bd6f6235911b4fa35acfcdad36ff03000000fd270100000000004d1f01645321025a2f522aea776fab5241ad72f7f05918e8606676461cb6ce38265a52d4ca9ed62102afc230c2d355b1a577682b07bc2646041b5d0177af0f98395a46018da699b6da21032822626c45fc1c4e3a3def5b4983636d6291a7a6677f66874c337e78bc3b7784210357a2621df0252caa3c4ccb383d6b309c93adbc6708bccfe751bb0cfeb12d34282103fb8e1d5d0392d35ca8c3656acb6193dbf392b3e89b9b7b86693f5c80f7ce858155ae670350cd00b27552210216c23b2ea8e4f11c3f9e22711addb1d16a93964796913830856b568cc3ea21d3210275562901dd8faae20de0a4166362a4f82188db77dbed4ca887422ea1ec185f1421034db69f2112f4fb1bb6141bf6e2bd6631f0484d0bd95b16767902c9fe219d4a6f53ae68ffffffffe29541bbead85ad5086bac030f77ae1e3caeeec563167a3f748ea9cfe2879cff04000000fd270100000000004d1f01645321025a2f522aea776fab5241ad72f7f05918e8606676461cb6ce38265a52d4ca9ed62102afc230c2d355b1a577682b07bc2646041b5d0177af0f98395a46018da699b6da21032822626c45fc1c4e3a3def5b4983636d6291a7a6677f66874c337e78bc3b7784210357a2621df0252caa3c4ccb383d6b309c93adbc6708bccfe751bb0cfeb12d34282103fb8e1d5d0392d35ca8c3656acb6193dbf392b3e89b9b7b86693f5c80f7ce858155ae670350cd00b27552210216c23b2ea8e4f11c3f9e22711addb1d16a93964796913830856b568cc3ea21d3210275562901dd8faae20de0a4166362a4f82188db77dbed4ca887422ea1ec185f1421034db69f2112f4fb1bb6141bf6e2bd6631f0484d0bd95b16767902c9fe219d4a6f53ae68ffffffff01a1d3d2c97900000017a914333498c05772bf32c37c4b31bc4d386e540904158700000000",
    "decodedTx": {
      "txid": "1162968e99f45369fccd143a458458169cb0886a35b9d6fc70892b6bca8db193",
      "hash": "1162968e99f45369fccd143a458458169cb0886a35b9d6fc70892b6bca8db193",
      "version": 1,
      "size": 4774,
      "vsize": 4774,
      "weight": 19096,
      "locktime": 0,
      "vin": [
        {
          "txid": "7c3132d25de241462b3170d89fbb3a0f70f36352587c8d22c9cd2320eacd5423",
          "vout": 1,
          "scriptSig": {
            "asm": "0 0 0 0 0 645321025a2f522aea776fab5241ad72f7f05918e8606676461cb6ce38265a52d4ca9ed62102afc230c2d355b1a577682b07bc2646041b5d0177af0f98395a46018da699b6da21032822626c45fc1c4e3a3def5b4983636d6291a7a6677f66874c337e78bc3b7784210357a2621df0252caa3c4ccb383d6b309c93adbc6708bccfe751bb0cfeb12d34282103fb8e1d5d0392d35ca8c3656acb6193dbf392b3e89b9b7b86693f5c80f7ce858155ae670350cd00b27552210216c23b2ea8e4f11c3f9e22711addb1d16a93964796913830856b568cc3ea21d3210275562901dd8faae20de0a4166362a4f82188db77dbed4ca887422ea1ec185f1421034db69f2112f4fb1bb6141bf6e2bd6631f0484d0bd95b16767902c9fe219d4a6f53ae68",
            "hex": "00000000004d1f01645321025a2f522aea776fab5241ad72f7f05918e8606676461cb6ce38265a52d4ca9ed62102afc230c2d355b1a577682b07bc2646041b5d0177af0f98395a46018da699b6da21032822626c45fc1c4e3a3def5b4983636d6291a7a6677f66874c337e78bc3b7784210357a2621df0252caa3c4ccb383d6b309c93adbc6708bccfe751bb0cfeb12d34282103fb8e1d5d0392d35ca8c3656acb6193dbf392b3e89b9b7b86693f5c80f7ce858155ae670350cd00b27552210216c23b2ea8e4f11c3f9e22711addb1d16a93964796913830856b568cc3ea21d3210275562901dd8faae20de0a4166362a4f82188db77dbed4ca887422ea1ec185f1421034db69f2112f4fb1bb6141bf6e2bd6631f0484d0bd95b16767902c9fe219d4a6f53ae68"
          },
          "sequence": 4294967295
        },
        {
          "txid": "9f4507ab73976aa9241655f2e4c8e9f9ef24448f156e5e83ab93d9adf84531ef",
          "vout": 1,
          "scriptSig": {
            "asm": "0 0 0 0 0 645321025a2f522aea776fab5241ad72f7f05918e8606676461cb6ce38265a52d4ca9ed62102afc230c2d355b1a577682b07bc2646041b5d0177af0f98395a46018da699b6da21032822626c45fc1c4e3a3def5b4983636d6291a7a6677f66874c337e78bc3b7784210357a2621df0252caa3c4ccb383d6b309c93adbc6708bccfe751bb0cfeb12d34282103fb8e1d5d0392d35ca8c3656acb6193dbf392b3e89b9b7b86693f5c80f7ce858155ae670350cd00b27552210216c23b2ea8e4f11c3f9e22711addb1d16a93964796913830856b568cc3ea21d3210275562901dd8faae20de0a4166362a4f82188db77dbed4ca887422ea1ec185f1421034db69f2112f4fb1bb6141bf6e2bd6631f0484d0bd95b16767902c9fe219d4a6f53ae68",
            "hex": "00000000004d1f01645321025a2f522aea776fab5241ad72f7f05918e8606676461cb6ce38265a52d4ca9ed62102afc230c2d355b1a577682b07bc2646041b5d0177af0f98395a46018da699b6da21032822626c45fc1c4e3a3def5b4983636d6291a7a6677f66874c337e78bc3b7784210357a2621df0252caa3c4ccb383d6b309c93adbc6708bccfe751bb0cfeb12d34282103fb8e1d5d0392d35ca8c3656acb6193dbf392b3e89b9b7b86693f5c80f7ce858155ae670350cd00b27552210216c23b2ea8e4f11c3f9e22711addb1d16a93964796913830856b568cc3ea21d3210275562901dd8faae20de0a4166362a4f82188db77dbed4ca887422ea1ec185f1421034db69f2112f4fb1bb6141bf6e2bd6631f0484d0bd95b16767902c9fe219d4a6f53ae68"
          },
          "sequence": 4294967295
        },
        {
          "txid": "9fc9554d5119104d32955da357ed9d19c99ff2a3497bb6721c020f03a27383dd",
          "vout": 1,
          "scriptSig": {
            "asm": "0 0 0 0 0 645321025a2f522aea776fab5241ad72f7f05918e8606676461cb6ce38265a52d4ca9ed62102afc230c2d355b1a577682b07bc2646041b5d0177af0f98395a46018da699b6da21032822626c45fc1c4e3a3def5b4983636d6291a7a6677f66874c337e78bc3b7784210357a2621df0252caa3c4ccb383d6b309c93adbc6708bccfe751bb0cfeb12d34282103fb8e1d5d0392d35ca8c3656acb6193dbf392b3e89b9b7b86693f5c80f7ce858155ae670350cd00b27552210216c23b2ea8e4f11c3f9e22711addb1d16a93964796913830856b568cc3ea21d3210275562901dd8faae20de0a4166362a4f82188db77dbed4ca887422ea1ec185f1421034db69f2112f4fb1bb6141bf6e2bd6631f0484d0bd95b16767902c9fe219d4a6f53ae68",
            "hex": "00000000004d1f01645321025a2f522aea776fab5241ad72f7f05918e8606676461cb6ce38265a52d4ca9ed62102afc230c2d355b1a577682b07bc2646041b5d0177af0f98395a46018da699b6da21032822626c45fc1c4e3a3def5b4983636d6291a7a6677f66874c337e78bc3b7784210357a2621df0252caa3c4ccb383d6b309c93adbc6708bccfe751bb0cfeb12d34282103fb8e1d5d0392d35ca8c3656acb6193dbf392b3e89b9b7b86693f5c80f7ce858155ae670350cd00b27552210216c23b2ea8e4f11c3f9e22711addb1d16a93964796913830856b568cc3ea21d3210275562901dd8faae20de0a4166362a4f82188db77dbed4ca887422ea1ec185f1421034db69f2112f4fb1bb6141bf6e2bd6631f0484d0bd95b16767902c9fe219d4a6f53ae68"
          },
          "sequence": 4294967295
        },
        {
          "txid": "a2c857cd6650e5d7fd42c37fa26aecff3b5346aaf6da3222de677523e808e6da",
          "vout": 1,
          "scriptSig": {
            "asm": "0 0 0 0 0 645321025a2f522aea776fab5241ad72f7f05918e8606676461cb6ce38265a52d4ca9ed62102afc230c2d355b1a577682b07bc2646041b5d0177af0f98395a46018da699b6da21032822626c45fc1c4e3a3def5b4983636d6291a7a6677f66874c337e78bc3b7784210357a2621df0252caa3c4ccb383d6b309c93adbc6708bccfe751bb0cfeb12d34282103fb8e1d5d0392d35ca8c3656acb6193dbf392b3e89b9b7b86693f5c80f7ce858155ae670350cd00b27552210216c23b2ea8e4f11c3f9e22711addb1d16a93964796913830856b568cc3ea21d3210275562901dd8faae20de0a4166362a4f82188db77dbed4ca887422ea1ec185f1421034db69f2112f4fb1bb6141bf6e2bd6631f0484d0bd95b16767902c9fe219d4a6f53ae68",
            "hex": "00000000004d1f01645321025a2f522aea776fab5241ad72f7f05918e8606676461cb6ce38265a52d4ca9ed62102afc230c2d355b1a577682b07bc2646041b5d0177af0f98395a46018da699b6da21032822626c45fc1c4e3a3def5b4983636d6291a7a6677f66874c337e78bc3b7784210357a2621df0252caa3c4ccb383d6b309c93adbc6708bccfe751bb0cfeb12d34282103fb8e1d5d0392d35ca8c3656acb6193dbf392b3e89b9b7b86693f5c80f7ce858155ae670350cd00b27552210216c23b2ea8e4f11c3f9e22711addb1d16a93964796913830856b568cc3ea21d3210275562901dd8faae20de0a4166362a4f82188db77dbed4ca887422ea1ec185f1421034db69f2112f4fb1bb6141bf6e2bd6631f0484d0bd95b16767902c9fe219d4a6f53ae68"
          },
          "sequence": 4294967295
        },
        {
          "txid": "ad0081b913bacc96b9c536330abb5dac0cffd2f032e76fb3d645833c567d85da",
          "vout": 1,
          "scriptSig": {
            "asm": "0 0 0 0 0 645321025a2f522aea776fab5241ad72f7f05918e8606676461cb6ce38265a52d4ca9ed62102afc230c2d355b1a577682b07bc2646041b5d0177af0f98395a46018da699b6da21032822626c45fc1c4e3a3def5b4983636d6291a7a6677f66874c337e78bc3b7784210357a2621df0252caa3c4ccb383d6b309c93adbc6708bccfe751bb0cfeb12d34282103fb8e1d5d0392d35ca8c3656acb6193dbf392b3e89b9b7b86693f5c80f7ce858155ae670350cd00b27552210216c23b2ea8e4f11c3f9e22711addb1d16a93964796913830856b568cc3ea21d3210275562901dd8faae20de0a4166362a4f82188db77dbed4ca887422ea1ec185f1421034db69f2112f4fb1bb6141bf6e2bd6631f0484d0bd95b16767902c9fe219d4a6f53ae68",
            "hex": "00000000004d1f01645321025a2f522aea776fab5241ad72f7f05918e8606676461cb6ce38265a52d4ca9ed62102afc230c2d355b1a577682b07bc2646041b5d0177af0f98395a46018da699b6da21032822626c45fc1c4e3a3def5b4983636d6291a7a6677f66874c337e78bc3b7784210357a2621df0252caa3c4ccb383d6b309c93adbc6708bccfe751bb0cfeb12d34282103fb8e1d5d0392d35ca8c3656acb6193dbf392b3e89b9b7b86693f5c80f7ce858155ae670350cd00b27552210216c23b2ea8e4f11c3f9e22711addb1d16a93964796913830856b568cc3ea21d3210275562901dd8faae20de0a4166362a4f82188db77dbed4ca887422ea1ec185f1421034db69f2112f4fb1bb6141bf6e2bd6631f0484d0bd95b16767902c9fe219d4a6f53ae68"
          },
          "sequence": 4294967295
        },
        {
          "txid": "f421c89d352709c7af995e7084254b3bce7165bd17c941140734351178cbe799",
          "vout": 1,
          "scriptSig": {
            "asm": "0 0 0 0 0 645321025a2f522aea776fab5241ad72f7f05918e8606676461cb6ce38265a52d4ca9ed62102afc230c2d355b1a577682b07bc2646041b5d0177af0f98395a46018da699b6da21032822626c45fc1c4e3a3def5b4983636d6291a7a6677f66874c337e78bc3b7784210357a2621df0252caa3c4ccb383d6b309c93adbc6708bccfe751bb0cfeb12d34282103fb8e1d5d0392d35ca8c3656acb6193dbf392b3e89b9b7b86693f5c80f7ce858155ae670350cd00b27552210216c23b2ea8e4f11c3f9e22711addb1d16a93964796913830856b568cc3ea21d3210275562901dd8faae20de0a4166362a4f82188db77dbed4ca887422ea1ec185f1421034db69f2112f4fb1bb6141bf6e2bd6631f0484d0bd95b16767902c9fe219d4a6f53ae68",
            "hex": "00000000004d1f01645321025a2f522aea776fab5241ad72f7f05918e8606676461cb6ce38265a52d4ca9ed62102afc230c2d355b1a577682b07bc2646041b5d0177af0f98395a46018da699b6da21032822626c45fc1c4e3a3def5b4983636d6291a7a6677f66874c337e78bc3b7784210357a2621df0252caa3c4ccb383d6b309c93adbc6708bccfe751bb0cfeb12d34282103fb8e1d5d0392d35ca8c3656acb6193dbf392b3e89b9b7b86693f5c80f7ce858155ae670350cd00b27552210216c23b2ea8e4f11c3f9e22711addb1d16a93964796913830856b568cc3ea21d3210275562901dd8faae20de0a4166362a4f82188db77dbed4ca887422ea1ec185f1421034db69f2112f4fb1bb6141bf6e2bd6631f0484d0bd95b16767902c9fe219d4a6f53ae68"
          },
          "sequence": 4294967295
        },
        {
          "txid": "f4d51e6bf7bbec7cf17453f418944eeadb2418d4af8a6164182ce77fed1aaf71",
          "vout": 1,
          "scriptSig": {
            "asm": "0 0 0 0 0 645321025a2f522aea776fab5241ad72f7f05918e8606676461cb6ce38265a52d4ca9ed62102afc230c2d355b1a577682b07bc2646041b5d0177af0f98395a46018da699b6da21032822626c45fc1c4e3a3def5b4983636d6291a7a6677f66874c337e78bc3b7784210357a2621df0252caa3c4ccb383d6b309c93adbc6708bccfe751bb0cfeb12d34282103fb8e1d5d0392d35ca8c3656acb6193dbf392b3e89b9b7b86693f5c80f7ce858155ae670350cd00b27552210216c23b2ea8e4f11c3f9e22711addb1d16a93964796913830856b568cc3ea21d3210275562901dd8faae20de0a4166362a4f82188db77dbed4ca887422ea1ec185f1421034db69f2112f4fb1bb6141bf6e2bd6631f0484d0bd95b16767902c9fe219d4a6f53ae68",
            "hex": "00000000004d1f01645321025a2f522aea776fab5241ad72f7f05918e8606676461cb6ce38265a52d4ca9ed62102afc230c2d355b1a577682b07bc2646041b5d0177af0f98395a46018da699b6da21032822626c45fc1c4e3a3def5b4983636d6291a7a6677f66874c337e78bc3b7784210357a2621df0252caa3c4ccb383d6b309c93adbc6708bccfe751bb0cfeb12d34282103fb8e1d5d0392d35ca8c3656acb6193dbf392b3e89b9b7b86693f5c80f7ce858155ae670350cd00b27552210216c23b2ea8e4f11c3f9e22711addb1d16a93964796913830856b568cc3ea21d3210275562901dd8faae20de0a4166362a4f82188db77dbed4ca887422ea1ec185f1421034db69f2112f4fb1bb6141bf6e2bd6631f0484d0bd95b16767902c9fe219d4a6f53ae68"
          },
          "sequence": 4294967295
        },
        {
          "txid": "f6580f78efde178f0640a5ac35fc272985c44966397455ef6d4999f395880463",
          "vout": 1,
          "scriptSig": {
            "asm": "0 0 0 0 0 645321025a2f522aea776fab5241ad72f7f05918e8606676461cb6ce38265a52d4ca9ed62102afc230c2d355b1a577682b07bc2646041b5d0177af0f98395a46018da699b6da21032822626c45fc1c4e3a3def5b4983636d6291a7a6677f66874c337e78bc3b7784210357a2621df0252caa3c4ccb383d6b309c93adbc6708bccfe751bb0cfeb12d34282103fb8e1d5d0392d35ca8c3656acb6193dbf392b3e89b9b7b86693f5c80f7ce858155ae670350cd00b27552210216c23b2ea8e4f11c3f9e22711addb1d16a93964796913830856b568cc3ea21d3210275562901dd8faae20de0a4166362a4f82188db77dbed4ca887422ea1ec185f1421034db69f2112f4fb1bb6141bf6e2bd6631f0484d0bd95b16767902c9fe219d4a6f53ae68",
            "hex": "00000000004d1f01645321025a2f522aea776fab5241ad72f7f05918e8606676461cb6ce38265a52d4ca9ed62102afc230c2d355b1a577682b07bc2646041b5d0177af0f98395a46018da699b6da21032822626c45fc1c4e3a3def5b4983636d6291a7a6677f66874c337e78bc3b7784210357a2621df0252caa3c4ccb383d6b309c93adbc6708bccfe751bb0cfeb12d34282103fb8e1d5d0392d35ca8c3656acb6193dbf392b3e89b9b7b86693f5c80f7ce858155ae670350cd00b27552210216c23b2ea8e4f11c3f9e22711addb1d16a93964796913830856b568cc3ea21d3210275562901dd8faae20de0a4166362a4f82188db77dbed4ca887422ea1ec185f1421034db69f2112f4fb1bb6141bf6e2bd6631f0484d0bd95b16767902c9fe219d4a6f53ae68"
          },
          "sequence": 4294967295
        },
        {
          "txid": "f83fd8b624f355c3f6039beff050697482f1e3eb024f803d428280c1d02c6a1c",
          "vout": 1,
          "scriptSig": {
            "asm": "0 0 0 0 0 645321025a2f522aea776fab5241ad72f7f05918e8606676461cb6ce38265a52d4ca9ed62102afc230c2d355b1a577682b07bc2646041b5d0177af0f98395a46018da699b6da21032822626c45fc1c4e3a3def5b4983636d6291a7a6677f66874c337e78bc3b7784210357a2621df0252caa3c4ccb383d6b309c93adbc6708bccfe751bb0cfeb12d34282103fb8e1d5d0392d35ca8c3656acb6193dbf392b3e89b9b7b86693f5c80f7ce858155ae670350cd00b27552210216c23b2ea8e4f11c3f9e22711addb1d16a93964796913830856b568cc3ea21d3210275562901dd8faae20de0a4166362a4f82188db77dbed4ca887422ea1ec185f1421034db69f2112f4fb1bb6141bf6e2bd6631f0484d0bd95b16767902c9fe219d4a6f53ae68",
            "hex": "00000000004d1f01645321025a2f522aea776fab5241ad72f7f05918e8606676461cb6ce38265a52d4ca9ed62102afc230c2d355b1a577682b07bc2646041b5d0177af0f98395a46018da699b6da21032822626c45fc1c4e3a3def5b4983636d6291a7a6677f66874c337e78bc3b7784210357a2621df0252caa3c4ccb383d6b309c93adbc6708bccfe751bb0cfeb12d34282103fb8e1d5d0392d35ca8c3656acb6193dbf392b3e89b9b7b86693f5c80f7ce858155ae670350cd00b27552210216c23b2ea8e4f11c3f9e22711addb1d16a93964796913830856b568cc3ea21d3210275562901dd8faae20de0a4166362a4f82188db77dbed4ca887422ea1ec185f1421034db69f2112f4fb1bb6141bf6e2bd6631f0484d0bd95b16767902c9fe219d4a6f53ae68"
          },
          "sequence": 4294967295
        },
        {
          "txid": "f9d2dc7865b589784c6ae4f7d052083014de907ba4066671114e35034e5d52c6",
          "vout": 2,
          "scriptSig": {
            "asm": "0 0 0 0 0 645321025a2f522aea776fab5241ad72f7f05918e8606676461cb6ce38265a52d4ca9ed62102afc230c2d355b1a577682b07bc2646041b5d0177af0f98395a46018da699b6da21032822626c45fc1c4e3a3def5b4983636d6291a7a6677f66874c337e78bc3b7784210357a2621df0252caa3c4ccb383d6b309c93adbc6708bccfe751bb0cfeb12d34282103fb8e1d5d0392d35ca8c3656acb6193dbf392b3e89b9b7b86693f5c80f7ce858155ae670350cd00b27552210216c23b2ea8e4f11c3f9e22711addb1d16a93964796913830856b568cc3ea21d3210275562901dd8faae20de0a4166362a4f82188db77dbed4ca887422ea1ec185f1421034db69f2112f4fb1bb6141bf6e2bd6631f0484d0bd95b16767902c9fe219d4a6f53ae68",
            "hex": "00000000004d1f01645321025a2f522aea776fab5241ad72f7f05918e8606676461cb6ce38265a52d4ca9ed62102afc230c2d355b1a577682b07bc2646041b5d0177af0f98395a46018da699b6da21032822626c45fc1c4e3a3def5b4983636d6291a7a6677f66874c337e78bc3b7784210357a2621df0252caa3c4ccb383d6b309c93adbc6708bccfe751bb0cfeb12d34282103fb8e1d5d0392d35ca8c3656acb6193dbf392b3e89b9b7b86693f5c80f7ce858155ae670350cd00b27552210216c23b2ea8e4f11c3f9e22711addb1d16a93964796913830856b568cc3ea21d3210275562901dd8faae20de0a4166362a4f82188db77dbed4ca887422ea1ec185f1421034db69f2112f4fb1bb6141bf6e2bd6631f0484d0bd95b16767902c9fe219d4a6f53ae68"
          },
          "sequence": 4294967295
        },
        {
          "txid": "fcbc777661d842a25a1ce694661a6ce43d493591b75b140b4e8b0ee815bc1e82",
          "vout": 1,
          "scriptSig": {
            "asm": "0 0 0 0 0 645321025a2f522aea776fab5241ad72f7f05918e8606676461cb6ce38265a52d4ca9ed62102afc230c2d355b1a577682b07bc2646041b5d0177af0f98395a46018da699b6da21032822626c45fc1c4e3a3def5b4983636d6291a7a6677f66874c337e78bc3b7784210357a2621df0252caa3c4ccb383d6b309c93adbc6708bccfe751bb0cfeb12d34282103fb8e1d5d0392d35ca8c3656acb6193dbf392b3e89b9b7b86693f5c80f7ce858155ae670350cd00b27552210216c23b2ea8e4f11c3f9e22711addb1d16a93964796913830856b568cc3ea21d3210275562901dd8faae20de0a4166362a4f82188db77dbed4ca887422ea1ec185f1421034db69f2112f4fb1bb6141bf6e2bd6631f0484d0bd95b16767902c9fe219d4a6f53ae68",
            "hex": "00000000004d1f01645321025a2f522aea776fab5241ad72f7f05918e8606676461cb6ce38265a52d4ca9ed62102afc230c2d355b1a577682b07bc2646041b5d0177af0f98395a46018da699b6da21032822626c45fc1c4e3a3def5b4983636d6291a7a6677f66874c337e78bc3b7784210357a2621df0252caa3c4ccb383d6b309c93adbc6708bccfe751bb0cfeb12d34282103fb8e1d5d0392d35ca8c3656acb6193dbf392b3e89b9b7b86693f5c80f7ce858155ae670350cd00b27552210216c23b2ea8e4f11c3f9e22711addb1d16a93964796913830856b568cc3ea21d3210275562901dd8faae20de0a4166362a4f82188db77dbed4ca887422ea1ec185f1421034db69f2112f4fb1bb6141bf6e2bd6631f0484d0bd95b16767902c9fe219d4a6f53ae68"
          },
          "sequence": 4294967295
        },
        {
          "txid": "fd4613865e3b5d35612ff513d426fadcad6a069a93388d148089c25375147e55",
          "vout": 1,
          "scriptSig": {
            "asm": "0 0 0 0 0 645321025a2f522aea776fab5241ad72f7f05918e8606676461cb6ce38265a52d4ca9ed62102afc230c2d355b1a577682b07bc2646041b5d0177af0f98395a46018da699b6da21032822626c45fc1c4e3a3def5b4983636d6291a7a6677f66874c337e78bc3b7784210357a2621df0252caa3c4ccb383d6b309c93adbc6708bccfe751bb0cfeb12d34282103fb8e1d5d0392d35ca8c3656acb6193dbf392b3e89b9b7b86693f5c80f7ce858155ae670350cd00b27552210216c23b2ea8e4f11c3f9e22711addb1d16a93964796913830856b568cc3ea21d3210275562901dd8faae20de0a4166362a4f82188db77dbed4ca887422ea1ec185f1421034db69f2112f4fb1bb6141bf6e2bd6631f0484d0bd95b16767902c9fe219d4a6f53ae68",
            "hex": "00000000004d1f01645321025a2f522aea776fab5241ad72f7f05918e8606676461cb6ce38265a52d4ca9ed62102afc230c2d355b1a577682b07bc2646041b5d0177af0f98395a46018da699b6da21032822626c45fc1c4e3a3def5b4983636d6291a7a6677f66874c337e78bc3b7784210357a2621df0252caa3c4ccb383d6b309c93adbc6708bccfe751bb0cfeb12d34282103fb8e1d5d0392d35ca8c3656acb6193dbf392b3e89b9b7b86693f5c80f7ce858155ae670350cd00b27552210216c23b2ea8e4f11c3f9e22711addb1d16a93964796913830856b568cc3ea21d3210275562901dd8faae20de0a4166362a4f82188db77dbed4ca887422ea1ec185f1421034db69f2112f4fb1bb6141bf6e2bd6631f0484d0bd95b16767902c9fe219d4a6f53ae68"
          },
          "sequence": 4294967295
        },
        {
          "txid": "ff36adcdcf5aa34f1b9135626fbd9248f5df181a9fbd98dad0ca261f5247266d",
          "vout": 3,
          "scriptSig": {
            "asm": "0 0 0 0 0 645321025a2f522aea776fab5241ad72f7f05918e8606676461cb6ce38265a52d4ca9ed62102afc230c2d355b1a577682b07bc2646041b5d0177af0f98395a46018da699b6da21032822626c45fc1c4e3a3def5b4983636d6291a7a6677f66874c337e78bc3b7784210357a2621df0252caa3c4ccb383d6b309c93adbc6708bccfe751bb0cfeb12d34282103fb8e1d5d0392d35ca8c3656acb6193dbf392b3e89b9b7b86693f5c80f7ce858155ae670350cd00b27552210216c23b2ea8e4f11c3f9e22711addb1d16a93964796913830856b568cc3ea21d3210275562901dd8faae20de0a4166362a4f82188db77dbed4ca887422ea1ec185f1421034db69f2112f4fb1bb6141bf6e2bd6631f0484d0bd95b16767902c9fe219d4a6f53ae68",
            "hex": "00000000004d1f01645321025a2f522aea776fab5241ad72f7f05918e8606676461cb6ce38265a52d4ca9ed62102afc230c2d355b1a577682b07bc2646041b5d0177af0f98395a46018da699b6da21032822626c45fc1c4e3a3def5b4983636d6291a7a6677f66874c337e78bc3b7784210357a2621df0252caa3c4ccb383d6b309c93adbc6708bccfe751bb0cfeb12d34282103fb8e1d5d0392d35ca8c3656acb6193dbf392b3e89b9b7b86693f5c80f7ce858155ae670350cd00b27552210216c23b2ea8e4f11c3f9e22711addb1d16a93964796913830856b568cc3ea21d3210275562901dd8faae20de0a4166362a4f82188db77dbed4ca887422ea1ec185f1421034db69f2112f4fb1bb6141bf6e2bd6631f0484d0bd95b16767902c9fe219d4a6f53ae68"
          },
          "sequence": 4294967295
        },
        {
          "txid": "ff9c87e2cfa98e743f7a1663c5eeae3c1eae770f03ac6b08d55ad8eabb4195e2",
          "vout": 4,
          "scriptSig": {
            "asm": "0 0 0 0 0 645321025a2f522aea776fab5241ad72f7f05918e8606676461cb6ce38265a52d4ca9ed62102afc230c2d355b1a577682b07bc2646041b5d0177af0f98395a46018da699b6da21032822626c45fc1c4e3a3def5b4983636d6291a7a6677f66874c337e78bc3b7784210357a2621df0252caa3c4ccb383d6b309c93adbc6708bccfe751bb0cfeb12d34282103fb8e1d5d0392d35ca8c3656acb6193dbf392b3e89b9b7b86693f5c80f7ce858155ae670350cd00b27552210216c23b2ea8e4f11c3f9e22711addb1d16a93964796913830856b568cc3ea21d3210275562901dd8faae20de0a4166362a4f82188db77dbed4ca887422ea1ec185f1421034db69f2112f4fb1bb6141bf6e2bd6631f0484d0bd95b16767902c9fe219d4a6f53ae68",
            "hex": "00000000004d1f01645321025a2f522aea776fab5241ad72f7f05918e8606676461cb6ce38265a52d4ca9ed62102afc230c2d355b1a577682b07bc2646041b5d0177af0f98395a46018da699b6da21032822626c45fc1c4e3a3def5b4983636d6291a7a6677f66874c337e78bc3b7784210357a2621df0252caa3c4ccb383d6b309c93adbc6708bccfe751bb0cfeb12d34282103fb8e1d5d0392d35ca8c3656acb6193dbf392b3e89b9b7b86693f5c80f7ce858155ae670350cd00b27552210216c23b2ea8e4f11c3f9e22711addb1d16a93964796913830856b568cc3ea21d3210275562901dd8faae20de0a4166362a4f82188db77dbed4ca887422ea1ec185f1421034db69f2112f4fb1bb6141bf6e2bd6631f0484d0bd95b16767902c9fe219d4a6f53ae68"
          },
          "sequence": 4294967295
        }
      ],
      "vout": [
        {
          "value": 5230.77079969,
          "n": 0,
          "scriptPubKey": {
            "asm": "OP_HASH160 333498c05772bf32c37c4b31bc4d386e54090415 OP_EQUAL",
            "hex": "a914333498c05772bf32c37c4b31bc4d386e5409041587",
            "reqSigs": 1,
            "type": "scripthash",
            "addresses": [
              "2MwuyTYoDYbfPNYS5nUe4PeEeGt33w7C2x3"
            ]
          }
        }
      ]
    }
  }
]